:020000040800F2
:1000000000500020052000087D1B0008831B00080D
:10001000891B00088F1B0008951B000800000000CA
:1000200000000000000000000000000091530008E4
:100030009B1B00080000000071550008B95500081E
:100040004D2000084D2000084D2000084D200008DC
:100050004D2000084D2000084D2000084D200008CC
:100060004D2000084D2000084D2000084D200008BC
:100070004D2000084D200008A91B0008BD1B0008EA
:100080004D2000084D2000084D2000084D2000089C
:100090004D2000084D2000084D2000084D2000088C
:1000A0004D2000084D2000084D2000084D2000087C
:1000B0004D200008D11B00084D2000084D200008ED
:1000C0004D2000084D2000084D2000084D2000085C
:1000D0004D200008E51B00084D2000084D200008B9
:1000E0004D2000084D2000084D20000800000000B1
:1000F0000000000000000000000000000000000000
:0C01000000000000000000005FF808F1A3
:1001100010B5054C237833B9044B13B10448AFF341
:1001200000800123237010BD6C000020000000003F
:10013000FC7D000808B5034B1BB103490348AFF32E
:10014000008008BD0000000070000020FC7D000859
:100150004FF0FF0C1CEAD0521EBF1CEAD15392EAAA
:100160000C0F93EA0C0F6FD01A4480EA010C400286
:1001700018BF5FEA41211ED04FF0006343EA5010E0
:1001800043EA5111A0FB01310CF00040B1F5000F22
:100190003EBF490041EAD3715B0040EA010062F1D1
:1001A0007F02FD2A1DD8B3F1004F40EBC25008BFBB
:1001B00020F00100704790F0000F0CF0004C08BFD9
:1001C00049024CEA502040EA51207F3AC2BFD2F1A6
:1001D000FF0340EAC250704740F400004FF00003B4
:1001E000013A5DDC12F1190FDCBF00F000407047EE
:1001F000C2F10002410021FA02F1C2F1200200FA2C
:1002000002FC5FEA310040F1000053EA4C0308BFF2
:1002100020EADC70704792F0000F00F0004C02BF43
:10022000400010F4000F013AF9D040EA0C0093F0BE
:10023000000F01F0004C02BF490011F4000F013B18
:10024000F9D041EA0C018FE70CEAD15392EA0C0F86
:1002500018BF93EA0C0F0AD030F0004C18BF31F0F1
:10026000004CD8D180EA010000F00040704790F0C7
:10027000000F17BF90F0004F084691F0000F91F06B
:10028000004F14D092EA0C0F01D142020FD193EA31
:100290000C0F03D14B0218BF084608D180EA0100B9
:1002A00000F0004040F0FE4040F40000704740F095
:1002B000FE4040F44000704780F0004002E000BF84
:1002C00081F0004142001FBF5FEA410392EA030F41
:1002D0007FEA226C7FEA236C6AD04FEA1262D2EB8B
:1002E0001363C1BFD218414048404140B8BF5B4290
:1002F000192B88BF704710F0004F40F4000020F029
:100300007F4018BF404211F0004F41F4000121F03E
:100310007F4118BF494292EA030F3FD0A2F1010288
:1003200041FA03FC10EB0C00C3F1200301FA03F1C6
:1003300000F0004302D5494260EB4000B0F5000FE9
:1003400013D3B0F1807F06D340084FEA310102F1A8
:100350000102FE2A51D2B1F1004F40EBC25008BF5A
:1003600020F0010040EA03007047490040EB000024
:10037000013A28BFB0F5000FEDD2B0FA80FCACF125
:10038000080CB2EB0C0200FA0CF0AABF00EBC25052
:1003900052421843BCBFD0401843704792F0000F40
:1003A00081F4000106BF80F400000132013BB5E793
:1003B0004FEA41037FEA226C18BF7FEA236C21D009
:1003C00092EA030F04D092F0000F08BF084670476E
:1003D00090EA010F1CBF0020704712F07F4F04D13C
:1003E000400028BF40F00040704712F100723CBF4F
:1003F00000F50000704700F0004343F0FE4040F479
:10040000000070477FEA226216BF08467FEA236336
:100410000146420206BF5FEA412390EA010F40F421
:10042000800070474FF0000304E000BF10F000436D
:1004300048BF40425FEA000C08BF704743F0964354
:1004400001464FF000001CE050EA010208BF70476F
:100450004FF000030AE000BF50EA010208BF7047F6
:1004600011F0004302D5404261EB41015FEA010C0B
:1004700002BF84460146002043F0B64308BFA3F103
:100480008053A3F50003BCFA8CF2083AA3EBC253E5
:1004900010DB01FA02FC634400FA02FCC2F1200204
:1004A000BCF1004F20FA02F243EB020008BF20F03B
:1004B0000100704702F1200201FA02FCC2F12002A1
:1004C00050EA4C0021FA02F243EB020008BF20EA96
:1004D000DC70704742000ED2B2F1FE4F0BD34FF0EA
:1004E0009E03B3EB126209D44FEA002343F00043AA
:1004F00023FA02F070474FF00000704712F1610FCD
:1005000001D1420202D14FF0FF3070474FF000009E
:10051000704700BF80B500AF01221021074802F0EC
:100520007CFA01221021054802F077FA01221021FD
:10053000024802F072FA00BF80BD00BF000801400F
:1005400080B500AF00221021074802F066FA0022B1
:100550001021054802F061FA00221021024802F041
:100560005CFA00BF80BD00BF0008014080B500AF4D
:1005700001222021074802F050FA012220210548DB
:1005800002F04BFA01222021024802F046FA00BF95
:1005900080BD00BF0008014080B500AF00222021CF
:1005A000074802F03AFA00222021054802F035FA05
:1005B00000222021024802F030FA00BF80BD00BFB7
:1005C0000008014080B500AFFFF7A4FFFFF7CEFFA2
:1005D000FFF7E2FFFFF7B4FF00BF80BD80B500AFBB
:1005E000FFF7AEFFFFF7D8FFFFF794FFFFF7BEFF5F
:1005F00000BF80BD80B584B000AF78600023FB737E
:1006000015E0FFF79DFF97F90F307A6813441B78C8
:10061000012B02D1FFF7AAFF01E0FFF7BDFFFFF7B3
:1006200079FF97F90F30DBB20133DBB2FB7397F937
:100630000F30072BE5DD00BF00BF1037BD4680BD82
:1006400080B586B000AF78600023FB6000233B617B
:100650000023FB7514E07B681B781A46FB7D42FA89
:1006600003F303F00103002B14BF01230023DAB2CC
:10067000FB7D18333B4403F80C2CFB7D0133FB75E9
:10068000FB7D072BE7D9FFF79DFF07F10C03184609
:10069000FFF7B0FFFFF754FFFFF73CFF00F07EF8D5
:1006A0007B681B7803F0C003C02B01D0FFF796FFD7
:1006B00000BF1837BD4680BD80B586B000AF7860FA
:1006C0000B46FB700023FB6000233B610023FB759E
:1006D0002AE00023BB7516E0FB7D7A6813441B7883
:1006E0001A46BB7D42FA03F303F00103002B14BF4B
:1006F00001230023DAB2BB7D18333B4403F80C2CF2
:10070000BB7D0133BB75BB7D072BE5D907F10C031E
:100710001846FFF76FFFFFF713FFFFF7FBFE00F030
:100720003DF8FB7D0133FB75FA7DFB789A42D0D30F
:10073000FFF754FF00BF1837BD4680BD80B586B0B7
:1007400000AF0346FB7107F1080300221A605A60EC
:100750009A60DA601023BB6000233B6102237B6157
:10076000FB79002B0AD0012B11D10023FB6007F18C
:1007700008031946084801F0B5FF08E00123FB60B3
:1007800007F108031946044801F0ACFF00BF00BFA1
:100790001837BD4680BD00BF0014014080B500AFD2
:1007A0000120FFF7CBFFFFF7CBFE02E00020FFF7B1
:1007B000C5FF1021044802F019F90346002BF5D1BA
:1007C00000BF00BF80BD00BF0008014080B586B0FB
:1007D00000AF0346FB71FA7907F11003134918467D
:1007E00006F05AFE00237B6112E007F110027B69DC
:1007F00013441B78184600F08BF80346194607F19E
:100800000C027B6913440A461A707B6901337B61D1
:100810007B69032BE9DD07F10C031946072000F083
:1008200007F800BF1837BD4680BD00BF147E000822
:1008300080B584B000AF03463960FB7100233B7381
:100840000123FB73FB79072B19D840233B7307F176
:100850000C031846FFF7F4FEC0233B7307F10C03AB
:100860001846FFF7EDFE04213868FFF725FFFB79F6
:10087000184600F009F80023FB73FB7B00E0FB7BCC
:1008800018461037BD4680BD80B586B000AF034620
:10089000FB710023FB6000233B610123BB75FB79E7
:1008A000072B2FD8FB7963F07703FB710023FB75CF
:1008B00012E0FA79FB7D42FA03F303F00103002B07
:1008C00014BF01230023DAB2FB7D18333B4403F845
:1008D0000C2CFB7D0133FB75FB7D072BE9D9FFF762
:1008E00071FE07F10C031846FFF784FEFFF728FEA0
:1008F000FFF710FEFFF752FFFFF770FE0023BB75F6
:10090000BB7D00E0BB7D18461837BD4680BD0000AA
:1009100080B483B000AF0346FB71FB79203B5A2BB8
:1009200000F21A8101A252F823F000BFD10A000898
:10093000590B0008590B0008590B0008590B000807
:10094000590B0008590B0008590B0008590B0008F7
:10095000590B0008CD0A0008590B0008590B000874
:10096000C90A0008590B0008590B0008990A000829
:100970009D0A0008A10A0008A50A0008A90A0008A3
:10098000AD0A0008B10A0008B50A0008B90A000853
:10099000BD0A0008590B0008590B0008590B000844
:1009A000590B0008590B0008590B0008590B000897
:1009B000D50A0008DD0A0008E10A0008E90A000873
:1009C000ED0A0008F10A0008F50A0008F90A000813
:1009D000010B0008090B0008110B0008150B00089B
:1009E000190B00081D0B0008210B0008250B00083F
:1009F000290B0008310B0008350B0008390B0008E3
:100A00003D0B0008410B0008450B00084D0B00088A
:100A1000510B0008550B0008590B0008590B000832
:100A2000590B0008C50A0008C10A0008590B000844
:100A3000D90A0008DD0A0008E50A0008E90A0008EA
:100A4000ED0A0008F10A0008F50A0008FD0A00088E
:100A5000050B00080D0B0008110B0008150B000812
:100A6000190B00081D0B0008210B0008250B0008BE
:100A70002D0B0008310B0008350B0008390B00085E
:100A80003D0B0008410B0008490B00084D0B000806
:100A9000510B0008550B00083F235EE006235CE085
:100AA0005B235AE04F2358E0662356E06D2354E061
:100AB0007D2352E0072350E07F234EE06F234CE07C
:100AC00008234AE0012348E0402346E0632344E052
:100AD000002342E0772340E05F233EE07C233CE0BC
:100AE00039233AE0582338E05E2336E0792334E0B6
:100AF000712332E0352330E076232EE074232CE09E
:100B000006232AE0042328E01E2326E0162324E0FF
:100B1000752322E0382320E037231EE054231CE015
:100B20005C231AE0732318E07B2316E0672314E0AC
:100B3000502312E06D2310E078230EE01C230CE01C
:100B40003E230AE07E2308E02A2306E0762304E021
:100B50006E2302E01B2300E0002318460C37BD463D
:100B600080BC704780B400AF0C4B0D4A1A600D4B2F
:100B70000D4A1A600D4B1B685A690C4B1B6842F0FA
:100B800001025A61094B1B68DA68084B1B6842F086
:100B90002002DA6000BFBD4680BC7047180100200B
:100BA000880000201C010020D0000020300300201D
:100BB00080B485B000AF03463960FB713B681B6CA5
:100BC000013303F03F03FB603B685A6CFB689A42B9
:100BD00007D03B681B6C3A68F979D154FA683B68D6
:100BE0001A6400BF1437BD4680BC704780B586B01C
:100BF00000AF78607B681B681B687B617B681B6843
:100C0000DB683B617B6903F02003002B13D03B6959
:100C100003F02003002B0ED07B681B681B687B68E9
:100C20001B685B68FB731C4B1A68FB7B11461846FC
:100C3000FFF7BEFF2CE07B6903F08003002B27D079
:100C40003B6903F08003002B22D0144B1A6C134B2A
:100C50005B6C9A4208D17B681B68DA687B681B680A
:100C600022F08002DA6012E00C4B5B6C0B4AD35C22
:100C7000BB730A4B5B6C013303F03F03074A5364B9
:100C80007B681B681B687B681B68BA7B5A6000BF67
:100C90001837BD4680BD00BF18010020D0000020DD
:100CA00080B582B000AF104B5B690F4A43F001037F
:100CB00053610D4B5B6903F001037B607B6800228D
:100CC00005210E2001F0CFFA0E2001F0E8FA0022F3
:100CD00005210F2001F0C7FA0F2001F0E0FA00BF54
:100CE0000837BD4680BD00BF0010024080B500AF90
:100CF000064800F074FCCC21044800F0EDFC4421CF
:100D0000024800F0E9FC00BF80BD00BF6001002088
:100D100090B587B000AF03463960FB714F4B1B782D
:100D2000FA799A4201D3002394E00023FB74FB7903
:100D30001B014B4A1344184600F03EF90346002BB2
:100D400001D1002386E0474800F09CFC0346002BBD
:100D500001D100237EE0434800F041FCFB791B01F8
:100D60003F4A134419463F4800F0EAFDBE213D4882
:100D700000F0B2FC0023FB740DE0FC7C394800F06D
:100D8000C9FC03461A4604F118033B4403F8102C2F
:100D9000FB7C0133FB74FB7C042BEED93B7A1AB24B
:100DA0007B7A1B021BB213431BB23B822D4800F01F
:100DB00016FC3B7B5B11DBB203F00303DBB20933B0
:100DC000FB73FB7B093B032B3ED801A252F823F0B7
:100DD000E10D0008FB0D0008150E00082F0E00089D
:100DE0003B8A1846FFF722FB03464FF07C5118461A
:100DF000FFF7AEF903467B6128E03B8A1846FFF710
:100E000015FB03464FF07A511846FFF7A1F9034648
:100E10007B611BE03B8A1846FFF708FB03464FF057
:100E200078511846FFF794F903467B610EE03B8A40
:100E30001846FFF7FBFA03464FF076511846FFF7C6
:100E400087F903467B6101E0074B7B613B687A6968
:100E50001A60012318461C37BD4690BD740100205E
:100E6000200100206001002000007F4380B584B095
:100E700000AF03460A46FB711346BB714B4B1B7810
:100E8000FA799A4201D300238CE0FB791B01484A8E
:100E90001344184600F090F80346002B01D10023BC
:100EA00080E0444800F09BFBFB791B01404A13445F
:100EB0001946404800F044FDBE213E4800F00CFCBD
:100EC0003C4800F027FC3B4800F024FC394800F087
:100ED00021FC0346BB73374800F01CFC03467B73C0
:100EE000344800F017FC0346FB73BB79092B08D18B
:100EF000FB7B23F04003FB73FB7B23F02003FB739E
:100F000022E0BB790A2B08D1FB7B23F04003FB7363
:100F1000FB7B43F02003FB7316E0BB790B2B08D15E
:100F2000FB7B43F04003FB73FB7B23F02003FB734D
:100F30000AE0BB790C2B07D1FB7B43F04003FB732A
:100F4000FB7B43F02003FB731A4800F048FBFB795E
:100F50001B01174A13441946164800F0F1FC4E21B4
:100F6000144800F0B9FBBB7B1946124800F0B4FBF3
:100F70007B7B19460F4800F0AFFBFB7B19460D4801
:100F800000F0AAFB0B4800F02AFBFB791B01084A82
:100F900013441946074800F0D3FC4821054800F0E7
:100FA0009BFB012318461037BD4680BD740100200D
:100FB000200100206001002080B483B000AF786081
:100FC0007B681B78282B01D1012300E00023184601
:100FD0000C37BD4680BC704780B500AF024800F0BA
:100FE00051FB0346184680BD6001002090B583B0D8
:100FF00000AFFFF7F1FF0346002B2ED00023FB715B
:1010000026E0FB79174A1B0113440C3300221A70A7
:10101000FB791B01134A13441846FFF7CDFF034623
:10102000002B12D0FB791B0108330E4A1A44FC79BD
:10103000FB7911461846FFF76BFE03461946094A2D
:10104000230113440C330A461A70FB790133FB71F8
:10105000054B1B78FA799A42D3D300BF0C37BD46B3
:1010600090BD00BF200100207401002080B584B035
:1010700000AF0346FB710023FB730023BB73022206
:101080001F49204800F098FC1E4800F03CFC034635
:10109000FB7318E01C4B1B780133DAB21A4B1A7041
:1010A000BB7B5A1CBA731B01184A134419461548D6
:1010B00000F065FC134800F036FC0346FB73124B4E
:1010C0001B78032B03D8FB7B002BE3D100E000BF90
:1010D00000237B730AE0FA797B7B11461846FFF701
:1010E000C5FEFFF703FE7B7B01337B737A7BBB7B03
:1010F0009A42F0D300BF00BF1037BD4680BD00BF8D
:10110000000801406001002074010020200100203F
:1011100080B500AF0C4A00210C4803F049FD03469E
:101120000B4A13600B4A00210B4803F041FD0346B4
:101130000A4A13600A4A00210A4803F039FD0346AF
:10114000094A136000BF80BD507E00086D11000881
:10115000B8010020747E000895110008BC01002031
:10116000987E0008B1110008C001002080B582B04F
:1011700000AF78604FF47A730C220449044802F0FF
:1011800081FE4FF47A7003F0BDFDF3E7000000200C
:101190003003002080B582B000AF7860FFF726FFF3
:1011A000FFF7A4FD4FF47A7003F0ACFDF6E7000002
:1011B00080B582B000AF78600F4B9B681846FFF790
:1011C00089F90346DAB20D4B1A700C4B1B781A469C
:1011D0000B490C4806F060F96423402209490A488B
:1011E00002F050FE054B1B781846FFF7EFFA4FF45C
:1011F0007A7003F087FDDFE72001002075010020F1
:10120000307E0008780100203003002080B588B0CF
:1012100000AF07F1100300221A605A609A60DA608A
:10122000264B9B69254A43F020039361234B9B691E
:1012300003F02003FB60FB68204B9B691F4A43F0CF
:10124000040393611D4B9B6903F00403BB60BB68FF
:101250001A4B9B69194A43F008039361174B9B692A
:1012600003F008037B607B6800223221144801F000
:10127000D4FB00220421134801F0CFFB32233B6151
:1012800001237B610023BB610223FB6107F1100393
:1012900019460B4801F026FA04233B6101237B61C8
:1012A0000023BB610223FB6107F1100319460548C7
:1012B00001F018FA00BF2037BD4680BD0010024083
:1012C00000080140000C014080B500AF124B134AEA
:1012D0001A60114B124A5A600F4B00229A600E4B53
:1012E0000022DA600C4B4FF480421A610A4B002254
:1012F0005A61094B00229A61074B0022DA61064BC2
:1013000000221A62044801F0A1FB0346002B01D021
:1013100000F0F8F800BF80BDC40100200054004078
:10132000A086010080B588B000AF786007F1100397
:1013300000221A605A609A60DA607B681B68154A5E
:10134000934223D1144B9B69134A43F008039361E2
:10135000114B9B6903F00803FB60FB68C0233B61F2
:1013600012237B610323FB6107F1100319460B482D
:1013700001F0B8F9084BDB69074A43F40013D36165
:10138000054BDB6903F40013BB60BB6800BF20376B
:10139000BD4680BD0054004000100240000C0140DA
:1013A00080B500AF254B01221A70244B02225A70DF
:1013B000224B04229A70214B0822DA701F4B102214
:1013C0001A711E4B20225A711C4B40229A711B4BE2
:1013D0008022DA7100F03CFE00F03CF8FFF716FFC7
:1013E000FFF75EFC00F038FD00F094FC00F042FCDA
:1013F000FFF76AFF0C20FFF739FE1422104911484D
:1014000002F0C3FD104802F03FF9FFF7ABFB0022EA
:1014100004210E4801F001FB012210210C4801F0CB
:10142000FCFA012220210A4801F0F7FA03F05AFBE6
:10143000FFF76EFE03F088FBFEE700BF4C020020C2
:101440001802002030030020E8020020000C0140B8
:101450000008014080B590B000AF07F118032822C2
:101460000021184606F038F83B1D00221A605A6029
:101470009A60DA601A610123BB614FF48033FB612B
:1014800000233B620123BB6202237B634FF4803362
:10149000BB634FF4E013FB6307F11803184601F038
:1014A00019FC0346002B01D000F02CF80F237B60C1
:1014B0000223BB600023FB604FF480633B61002389
:1014C0007B613B1D0221184601F086FE0346002B7E
:1014D00001D000F017F800BF4037BD4680BD0000C6
:1014E00080B582B000AF78607B681B68044A934285
:1014F00001D100F0C3FD00BF0837BD4680BD00BF6D
:101500000004004080B400AF72B600BFFEE70000E8
:1015100080B483B000AF0346FB80084B1B680022F9
:101520005A6200BF054B1B685A6AFB889A42F9D978
:1015300000BF00BF0C37BD4680BC7047A002002032
:1015400080B586B000AF78600023FB6000233B616C
:1015500001237B617B689B88BB607B681B6807F10C
:1015600008021146184601F0BDF800BF1837BD4605
:1015700080BD80B586B000AF78601123FB6000238A
:101580003B6101237B617B689B88BB607B681B6838
:1015900007F108021146184601F0A4F800BF1837F9
:1015A000BD4680BD80B483B000AF78607B689B8807
:1015B0001A047B681B681A6100BF0C37BD4680BCEB
:1015C000704780B483B000AF78607B689A887B688E
:1015D0001B681A6100BF0C37BD4680BC704780B5E0
:1015E00084B000AF78607868FFF7DCFF7868FFF7B9
:1015F000C0FF4FF4F070FFF78BFF7868FFF7A0FF94
:101600004620FFF785FF7B681A687B689B88194630
:10161000104601F0EBF90346FB734FF4CD70FFF772
:1016200077FFFB7B18461037BD4680BD80B582B082
:1016300000AF78600B46FB70FB78002B0FD078680A
:10164000FFF7B0FF7868FFF794FF0620FFF760FF11
:101650007868FFF775FF4020FFF75AFF0EE07868C3
:10166000FFF7A0FF7868FFF784FF3C20FFF750FFEB
:101670007868FFF765FF0A20FFF74AFF00BF0837C9
:10168000BD4680BD80B584B000AF78600023FB7399
:101690007868FFF787FF7868FFF76BFF0220FFF796
:1016A00037FF7868FFF74CFF0A20FFF731FF7B68B0
:1016B0001A687B689B881946104601F097F9034623
:1016C000002B01D00123FB733220FFF721FFFB7BAE
:1016D00018461037BD4680BD80B584B000AF786035
:1016E0000B46FB700823FB73FB7803F00103DBB2AE
:1016F00019467868FFF79AFFFB785B08FB70FB7B65
:10170000013BFB73FB7B002BEED100BF00BF10370A
:10171000BD4680BD80B584B000AF78600823FB7300
:101720000023BB73BB7B5B08BB737868FFF7AAFF22
:101730000346DB015AB297F90E3013435BB2BB7319
:10174000FB7B013BFB73FB7B002BEBD1BB7B184688
:101750001037BD4680BD80B483B000AF78607B6831
:1017600000229A717B6800221A727B680022DA716B
:1017700000BF0C37BD4680BC704780B584B000AF59
:1017800078600B46FB700123FB730023BB730023BF
:101790007B730123FB7200233B737B681B7A002B56
:1017A00040F09A807868FFF71AFF0346002B0AD0B2
:1017B0007B6800229A717B6800221A727B68002283
:1017C000DA7100239BE0FB7819467868FFF784FF05
:1017D0007868FFF757FF03467B727868FFF752FF80
:1017E00003463B727B7A012B02D13B7A012B64D0FA
:1017F0007A7A3B7A9A4202D07B7ABB7226E07B6887
:101800009B79FA7B9A420DD27B7B7A6813445A7A91
:10181000FB7A1340DBB2002B14BF01230023DBB2A1
:10182000BB7208E07B689B79FA7B9A420CBF01236C
:101830000023DBB2BB72BB7A002B07D1FB7BBB73EF
:10184000BB7B082B02D87B68BA7BDA71BB7A012B91
:101850000CD17B7B7A681344597A7B7BFA7A0A43F2
:10186000D1B27A6813440A465A7210E07B7B7A68D8
:1018700013445B7A5AB297F90B30DB435BB21340E7
:101880005AB27B7BD1B27A6813440A465A72BB7A49
:1018900019467868FFF7CAFEFB7B0133FB73FB7ABE
:1018A0005B00FB72FB7A002B04D17B7B01337B73E3
:1018B0000123FB727B7B072B8AD9FB7B402B0BD947
:1018C0007B68BA7B9A717B689B79002B02D17B681D
:1018D00001221A7201233B733B7B002B03D07B68F0
:1018E0005B7A002B0AD17B6800229A717B68002208
:1018F0001A727B680022DA7100233B733B7B184627
:101900001037BD4680BD80B582B000AF7860786882
:10191000FFF721FFF0217868FFF72FFF03461846F5
:101920000837BD4680BD80B582B000AF7860F02139
:101930007868FFF722FF034618460837BD4680BD8A
:1019400080B584B000AF7860396055217868FFF7C2
:10195000C3FE0023FB730AE0FB7B3A6813441B7849
:1019600019467868FFF7B8FEFB7B0133FB73FB7BFE
:10197000072BF1D900BF00BF1037BD4680BD80B432
:1019800085B000AF786039600023FB730AE0FA7B12
:10199000FB7B39680B4479680A44527A1A70FB7BE6
:1019A0000133FB73FB7B072BF1D900BF00BF14375A
:1019B000BD4680BC7047000080B584B000AFF860C1
:1019C000B9601346FB80114801F014FEFB68BA6849
:1019D0001A60FB68FA889A80F868FFF7CAFDF86811
:1019E000FFF7EFFD642000F065FBF868FFF7DAFD14
:1019F000642000F05FFBF868FFF7E3FDC82000F00B
:101A000059FB00BF1037BD4680BD00BFA0020020BB
:101A100080B584B000AF184B9B69174A43F00103AF
:101A20009361154B9B6903F00103BB60BB68124BCC
:101A3000DB69114A43F08053D3610F4BDB6903F03C
:101A400080537B607B6800220F216FF0010000F063
:101A50000AFC0A4B5B68FB60FB6823F0E063FB60F9
:101A6000FB6843F00073FB60044AFB68536000BFEF
:101A70001037BD4680BD00BF00100240000001408D
:101A800080B58EB000AF78600023FB620023BB629C
:101A9000002387F83330344BDB69334A43F00203C9
:101AA000D361314BDB6903F00203FB60FB6807F194
:101AB000100207F114031146184601F0FDFC3B6AC1
:101AC000FB62FB6A002B03D101F0CEFC786304E0DB
:101AD00001F0CAFC03465B007B637B6B234AA2FBDD
:101AE00003239B0C013BBB62214B224A1A60204B13
:101AF00040F2E732DA601E4ABB6A53601C4B002298
:101B00001A611B4B00229A60194B00229A611848F7
:101B100001F020FD034687F8333097F83330002B6F
:101B20001BD1134801F0B0FD034687F8333097F816
:101B30003330002B11D11D2000F0B1FB7B680F2B3F
:101B400008D8002279681D2000F08DFB0A4A7B68C6
:101B5000136002E0012387F8333097F833301846DA
:101B60003837BD4680BD00BF0010024083DE1B43F6
:101B700054020020000400401000002080B400AF98
:101B8000FEE780B400AFFEE780B400AFFEE780B4AC
:101B900000AFFEE780B400AFFEE780B400AF00BF47
:101BA000BD4680BC7047000080B500AF024800F021
:101BB00093FC00BF80BD00BF7803002080B500AF5C
:101BC000024800F089FC00BF80BD00BFBC030020BC
:101BD00080B500AF024801F0A9FD00BF80BD00BF85
:101BE0005402002080B500AF0348FEF7FFFF024813
:101BF00002F0F0F900BF80BD3003002080B586B050
:101C000000AF7860144A154BD31A7B617B693B6146
:101C1000134B1B68002B02D1114B124A1A60104B58
:101C20001A687B6813443A699A4207D205F05CFC53
:101C300003460C221A604FF0FF3309E0084B1B6883
:101C4000FB60074B1A687B681344054A1360FB6806
:101C500018461837BD4680BD005000200004000023
:101C60009C020020981E002080B400AF00BFBD463B
:101C700080BC704780B586B000AF07F10803002232
:101C80001A605A609A60DA603B4600221A605A6015
:101C90001E4B1F4A1A601D4B3F225A601B4B0022ED
:101CA0009A601A4B4FF6FF72DA60184B00221A61E5
:101CB000164B00225A61154B00229A61134801F01D
:101CC00049FC0346002B01D0FFF71CFC4FF4805366
:101CD000BB6007F1080319460C4801F02FFE0346CC
:101CE000002B01D0FFF70EFC00233B6000237B603C
:101CF0003B461946054802F005F80346002B01D083
:101D0000FFF700FC00BF1837BD4680BDA0020020D1
:101D1000002C014080B586B000AF07F10803002217
:101D20001A605A609A60DA603B4600221A605A6074
:101D3000204B4FF080421A601E4B00225A601D4B10
:101D400000229A601B4B4FF6FF72DA60194B00229B
:101D50001A61184B00229A61164801F0FBFB0346FA
:101D6000002B01D0FFF7CEFB4FF40053BB600023E4
:101D7000FB6000233B6100237B6107F108031946E8
:101D80000C4801F0DBFD0346002B01D0FFF7BAFB46
:101D900000233B6000237B603B461946054801F069
:101DA000B1FF0346002B01D0FFF7ACFB00BF183793
:101DB000BD4680BDE802002080B58AB000AF7860E3
:101DC00007F1180300221A605A609A60DA607B6893
:101DD0001B681E4A93420CD11D4B9B691C4A43F45D
:101DE000006393611A4B9B6903F400637B617B6919
:101DF00028E07B681B68B3F1804F23D1144BDB696B
:101E0000134A43F00103D361114BDB6903F0010373
:101E10003B613B690E4B9B690D4A43F004039361A0
:101E20000B4B9B6903F00403FB60FB680123BB6160
:101E30000023FB6100233B6207F1180319460548A4
:101E400000F050FC00BF2837BD4680BD002C01408B
:101E5000001002400008014080B500AF114B124A4B
:101E60001A60104B4FF4E1325A600E4B00229A6018
:101E70000C4B0022DA600B4B00221A61094B0C223A
:101E80005A61084B00229A61064B0022DA6105482C
:101E900001F0A8FF0346002B01D0FFF733FB00BF82
:101EA00080BD00BF300300200038014080B588B0FD
:101EB00000AF786007F1100300221A605A609A6040
:101EC000DA607B681B68484A934240F08880474B41
:101ED0009B69464A43F480439361444B9B6903F4F6
:101EE0008043FB60FB68414B9B69404A43F004031D
:101EF00093613E4B9B6903F00403BB60BB684FF4E6
:101F000000733B6102237B610323FB6107F1100334
:101F10001946374800F0E6FB4FF480633B6100232D
:101F20007B610023BB6107F110031946304800F0C4
:101F3000D9FB304B304A1A602E4B10225A602D4B81
:101F400000229A602B4B8022DA602A4B00221A6111
:101F5000284B00225A61274B00229A61254B4FF4EF
:101F60000052DA61234800F0A9F90346002B01D0A2
:101F7000FFF7C8FA7B681F4A9A631E4A7B68536260
:101F80001E4B1F4A1A601D4B00225A601B4B002239
:101F90009A601A4B8022DA60184B00221A61174BA4
:101FA00000225A61154B00229A61144B4FF40052E3
:101FB000DA61124800F082F90346002B01D0FFF7E6
:101FC000A1FA7B680D4ADA630C4A7B6853620022EF
:101FD0000521252000F047F9252000F060F900BF19
:101FE0002037BD4680BD00BF0038014000100240D0
:101FF000000801407803002044000240BC03002098
:1020000058000240FFF730FE0B480C490C4A0023F1
:1020100002E0D458C4500433C4188C42F9D3094A9E
:10202000094C002301E013600432A242FBD305F007
:1020300061FAFFF7B5F97047000000206C0000203E
:10204000247F00086C000020941E0020FEE70000A2
:1020500080B500AF084B1B68074A43F010031360BC
:10206000032000F0F5F80F20FFF70AFDFFF7D0FC82
:102070000023184680BD00BF0020024080B400AF9E
:10208000054B1B781A46054B1B681344034A136023
:1020900000BFBD4680BC7047140000200004002033
:1020A00080B400AF024B1B681846BD4680BC704729
:1020B0000004002080B584B000AF7860FFF7F0FF27
:1020C000B8607B68FB60FB68B3F1FF3F05D00A4B4B
:1020D0001B781A46FB681344FB6000BFFFF7E0FF64
:1020E0000246BB68D31AFA689A42F7D800BF00BF0D
:1020F0001037BD4680BD00BF1400002080B485B0FD
:1021000000AF78607B6803F00703FB600C4BDB6873
:10211000BB60BA684FF6FF031340BB60FB681A024E
:10212000BB68134343F0BF6343F40033BB60044A0E
:10213000BB68D36000BF1437BD4680BC704700BF8A
:1021400000ED00E080B400AF044BDB681B0A03F035
:1021500007031846BD4680BC704700BF00ED00E095
:1021600080B483B000AF0346FB7197F90730002BB2
:102170000BDBFB7903F01F02064997F907305B0977
:10218000012000FA02F241F8232000BF0C37BD46BF
:1021900080BC704700E100E080B483B000AF03462C
:1021A0003960FB7197F90730002B0ADB3B68DAB224
:1021B0000C4997F907301201D2B20B4483F800237F
:1021C0000AE03B68DAB20849FB7903F00F03043BED
:1021D0001201D2B20B441A7600BF0C37BD4680BC48
:1021E000704700BF00E100E000ED00E080B489B07E
:1021F00000AFF860B9607A60FB6803F00703FB6129
:10220000FB69C3F10703042B28BF0423BB61FB69EF
:102210000433062B02D9FB69033B00E000237B61FA
:102220004FF0FF32BB6902FA03F3DA43BB681A408E
:102230007B699A404FF0FF317B6901FA03F3D94380
:102240007B680B40134318462437BD4680BC70475B
:1022500080B582B000AF78607868FFF74FFF00BFAD
:102260000837BD4680BD80B586B000AF0346B96073
:102270007A60FB7300237B61FFF764FF78617A6803
:10228000B9687869FFF7B2FF024697F90F30114637
:102290001846FFF781FF00BF1837BD4680BD80B5E7
:1022A00082B000AF0346FB7197F907301846FFF77D
:1022B00057FF00BF0837BD4680BD000080B485B021
:1022C00000AF78600023FB607B68002B01D1012305
:1022D00043E07B681B681A46224B1344224AA2FB48
:1022E00003231B099A007B681A647B681F4ADA6320
:1022F0007B68022283F821207B681B681B68FB60D7
:10230000FB6823F47F5323F03003FB607B685A683B
:102310007B689B681A437B68DB681A437B681B6990
:102320001A437B685B691A437B689B691A437B6825
:10233000DB691343FA681343FB607B681B68FA6828
:102340001A607B6800229A637B68012283F821204F
:102350007B68002283F82020002318461437BD46EE
:1023600080BC7047F8FFFDBFCDCCCCCC0000024054
:1023700080B485B000AF78600023FB737B6893F86E
:102380002130DBB2022B08D07B6804229A637B6881
:10239000002283F82020012320E07B681B681A6854
:1023A0007B681B6822F00E021A607B681B681A6843
:1023B0007B681B6822F001021A607B681A6C7B68DC
:1023C000DB6B012101FA02F25A607B68012283F87B
:1023D00021207B68002283F82020FB7B18461437DD
:1023E000BD4680BC7047000080B584B000AF786007
:1023F0000023FB737B6893F82130DBB2022B05D0FE
:102400007B6804229A630123FB7351E07B681B689D
:102410001A687B681B6822F00E021A607B681B68D2
:102420001A687B681B6822F001021A607B681B68CF
:10243000224A934229D07B681B68214A934222D0CA
:102440007B681B681F4A93421AD07B681B681E4A30
:10245000934212D07B681B681C4A93420AD07B6867
:102460001B681B4A934202D14FF480130EE04FF0D9
:1024700080730BE04FF4803308E04FF4805305E0A5
:102480004FF4807302E0102300E00123114A5360EF
:102490007B68012283F821207B68002283F82020BA
:1024A0007B685B6B002B03D07B685B6B786898471D
:1024B000FB7B18461037BD4680BD00BF08000240B8
:1024C0001C0002403000024044000240580002401C
:1024D0006C0002400000024080B584B000AF78601C
:1024E0007B68DB6B1B68FB607B681B681B68BB60E1
:1024F0007B681B6C04229A40FB681340002B4FD072
:10250000BB6803F00403002B4AD07B681B681B6880
:1025100003F02003002B07D17B681B681A687B68D7
:102520001B6822F004021A607B681B68664A9342AB
:1025300029D07B681B68654A934222D07B681B6860
:10254000634A93421AD07B681B68624A934212D056
:102550007B681B68604A93420AD07B681B685F4AAD
:10256000934202D14FF480030EE04FF080630BE002
:102570004FF4802308E04FF4804305E04FF480637C
:1025800002E0402300E00423554A53607B68DB6A85
:10259000002B00F094807B68DB6A786898478EE0B7
:1025A0007B681B6C02229A40FB681340002B56D0BC
:1025B000BB6803F00203002B51D07B681B681B68CB
:1025C00003F02003002B0BD17B681B681A687B6823
:1025D0001B6822F00A021A607B68012283F821201E
:1025E0007B681B68384A934229D07B681B68374A4E
:1025F000934222D07B681B68354A93421AD07B688D
:102600001B68344A934212D07B681B68324A93425B
:102610000AD07B681B68314A934202D14FF4001301
:102620000EE04FF000730BE04FF4003308E04FF47E
:10263000005305E04FF4007302E0202300E0022382
:10264000274A53607B68002283F820207B689B6ABE
:10265000002B34D07B689B6A786898472FE07B68B2
:102660001B6C08229A40FB681340002B28D0BB68E3
:1026700003F00803002B23D07B681B681A687B6873
:102680001B6822F00E021A607B681A6C7B68DB6B99
:10269000012101FA02F25A607B6801229A637B6889
:1026A000012283F821207B68002283F820207B68A8
:1026B0001B6B002B04D07B681B6B7868984700BFAE
:1026C00000BF1037BD4680BD080002401C0002401C
:1026D0003000024044000240580002406C000240BA
:1026E0000000024080B48BB000AF786039600023F6
:1026F0007B6200233B6269E101227B6A02FA03F3F9
:10270000FB613B681B68FA691340BB61BA69FB69EE
:102710009A4240F058813B685B689A4A93425ED087
:10272000984A934275D8984A934258D0964A934211
:102730006FD8964A934252D0944A934269D8944AA9
:1027400093424CD0924A934263D8924A934246D0E5
:10275000904A93425DD8122B2AD8122B59D801A245
:1027600052F823F0DF270008B9270008CB2700081C
:102770000D28000813280008132800081328000853
:10278000132800081328000813280008132800083D
:10279000132800081328000813280008132800082D
:1027A0001328000813280008C1270008D5270008AF
:1027B000794A934213D02CE03B68DB683B6229E006
:1027C0003B68DB6804333B6224E03B68DB6808332A
:1027D0003B621FE03B68DB680C333B621AE03B68FE
:1027E0009B68002B02D104233B6213E03B689B688B
:1027F000012B05D108233B627B68FA691A6109E065
:1028000008233B627B68FA695A6103E000233B625C
:1028100000E000BFBB69FF2B01D87B6801E07B684B
:1028200004337B61BB69FF2B02D87B6A9B0002E00B
:102830007B6A083B9B003B617B691A680F213B69FF
:1028400001FA03F3DB431A40396A3B6901FA03F3E7
:102850001A437B691A603B685B6803F08053002B66
:1028600000F0B1804D4B9B694C4A43F001039361EA
:102870004A4B9B6903F00103BB60BB68484A7B6A13
:102880009B08023352F82330FB607B6A03F003039A
:102890009B000F2202FA03F3DB43FA681340FB604C
:1028A0007B68404A934213D07B683F4A93420DD0E5
:1028B0007B683E4A934207D07B683D4A934201D1F0
:1028C000032306E0042304E0022302E0012300E0E6
:1028D00000237A6A02F0030292009340FA681343DD
:1028E000FB602F497B6A9B080233FA6841F823207A
:1028F0003B685B6803F48013002B06D02D4B9A686D
:102900002C49BB6913438B6006E02A4B9A68BB696C
:10291000DB43284913408B603B685B6803F400137A
:10292000002B06D0234BDA682249BB691343CB60E6
:1029300006E0204BDA68BB69DB431E491340CB60DD
:102940003B685B6803F40033002B06D0194B5A68D0
:102950001849BB6913434B6006E0164B5A68BB69C4
:10296000DB43144913404B603B685B6803F48033DE
:10297000002B21D00F4B1A680E49BB6913430B6023
:1029800021E000BF000032100000311000002210D2
:102990000000211000001210000011100010024071
:1029A0000000014000080140000C014000100140FF
:1029B00000140140000401400B4B1A68BB69DB4363
:1029C000094913400B607B6A01337B623B681A68DC
:1029D0007B6A22FA03F3002B7FF48EAE00BF00BFA8
:1029E0002C37BD4680BC70470004014080B485B0E0
:1029F00000AF78600B467B807B689A687B881340C9
:102A0000002B02D00123FB7301E00023FB73FB7B4F
:102A100018461437BD4680BC704780B483B000AF01
:102A200078600B467B8013467B707B78002B03D04D
:102A30007A887B681A6103E07B881A047B681A61D4
:102A400000BF0C37BD4680BC7047000080B584B025
:102A500000AF78607B68002B01D101232BE17B68FC
:102A600093F83D30DBB2002B06D17B68002283F85F
:102A70003C207868FEF756FC7B68242283F83D20D2
:102A80007B681B681A687B681B6822F001021A6069
:102A90007B681B681A687B681B6842F400421A60F6
:102AA0007B681B681A687B681B6822F400421A6006
:102AB00000F0DAFCF8607B685B68814A934207D8D3
:102AC000FB68804A934294BF01230023DBB206E0F7
:102AD000FB687D4A934294BF01230023DBB2002BA5
:102AE00001D00123E7E0FB68784AA2FB03239B0C9B
:102AF000BB607B681B685B6823F03F017B681B68D9
:102B0000BA680A435A607B681B681B6A23F03F015E
:102B10007B685B686A4A934202D8BB68013309E06C
:102B2000BB684FF4967202FB03F3694AA2FB0323CE
:102B30009B0901337A6812680B4313627B681B6838
:102B4000DB6923F44F4222F0FF027B685B685C493B
:102B50008B4219D8FB68591E7B685B685B00B1FB30
:102B6000F3F3591C40F6FC730B40002B0AD0FB68B2
:102B7000591E7B685B685B00B1FBF3F30133C3F361
:102B80000B0351E004234FE07B689B68002B11D1BD
:102B9000FB68581E7B6859680B465B000B44B0FB12
:102BA000F3F30133C3F30B03002B0CBF012300230A
:102BB000DBB212E0FB68581E7B6859680B469B002D
:102BC0000B4499000B44B0FBF3F30133C3F30B0345
:102BD000002B0CBF01230023DBB2002B01D001230B
:102BE00022E07B689B68002B0ED1FB68581E7B6837
:102BF00059680B465B000B44B0FBF3F30133C3F39E
:102C00000B0343F400430FE0FB68581E7B685968D0
:102C10000B469B000B4499000B44B0FBF3F30133CC
:102C2000C3F30B0343F44043796809681343CB6152
:102C30007B681B681B6823F0C0017B68DA697B68CE
:102C40001B6A1A437B681B680A431A607B681B680F
:102C50009B6823F4034323F0FF037A6811697A68C1
:102C6000D26811437A6812680B4393607B681B68D3
:102C7000DB6823F0FF017B685A697B689B691A4314
:102C80007B681B680A43DA607B681B681A687B688C
:102C90001B6842F001021A607B6800221A647B689C
:102CA000202283F83D207B6800221A637B68002283
:102CB00083F83E20002318461037BD4680BD00BF74
:102CC000A08601007F841E00FF083D0083DE1B43B9
:102CD000D34D621080B586B000AF78607B68002B62
:102CE00001D1012372E27B681B6803F00103002B12
:102CF00000F08780924B5B6803F00C03042B0CD030
:102D00008F4B5B6803F00C03082B12D18C4B5B6874
:102D100003F48033B3F5803F0BD1894B1B6803F478
:102D20000033002B6CD07B685B68002B68D10123DB
:102D30004CE27B685B68B3F5803F06D1804B1B6833
:102D40007F4A43F4803313602EE07B685B68002B7E
:102D50000CD17B4B1B687A4A23F480331360784B89
:102D60001B68774A23F4802313601DE07B685B684F
:102D7000B3F5A02F0CD1724B1B68714A43F480232A
:102D800013606F4B1B686E4A43F4803313600BE093
:102D90006B4B1B686A4A23F480331360684B1B68D3
:102DA000674A23F4802313607B685B68002B13D091
:102DB000FFF776F9386108E0FFF772F902463B69E0
:102DC000D31A642B01D9032300E25D4B1B6803F483
:102DD0000033002BF0D014E0FFF762F9386108E00F
:102DE000FFF75EF902463B69D31A642B01D903232E
:102DF000ECE1534B1B6803F40033002BF0D100E0EF
:102E000000BF7B681B6803F00203002B63D04C4BB0
:102E10005B6803F00C03002B0BD0494B5B6803F09D
:102E20000C03082B1CD1464B5B6803F48033002B4A
:102E300016D1434B1B6803F00203002B05D07B68BF
:102E40001B69012B01D00123C0E13D4B1B6823F01E
:102E5000F8027B685B69DB00394913430B603AE099
:102E60007B681B69002B20D0364B01221A60FFF7CC
:102E700017F9386108E0FFF713F902463B69D31AE6
:102E8000022B01D90323A1E12D4B1B6803F00203A0
:102E9000002BF0D02A4B1B6823F0F8027B685B699B
:102EA000DB00274913430B6015E0264B00221A6014
:102EB000FFF7F6F8386108E0FFF7F2F802463B69E1
:102EC000D31A022B01D9032380E11D4B1B6803F0A9
:102ED0000203002BF0D17B681B6803F00803002B72
:102EE0003AD07B689B69002B19D0174B01221A60DE
:102EF000FFF7D6F8386108E0FFF7D2F802463B69E1
:102F0000D31A022B01D9032360E10D4B5B6A03F056
:102F10000203002BF0D0012000F0FEFA1CE00A4B67
:102F200000221A60FFF7BCF838610FE0FFF7B8F82D
:102F300002463B69D31A022B08D9032346E100BF9E
:102F4000001002400000424280044242924B5B6A01
:102F500003F00203002BE9D17B681B6803F0040334
:102F6000002B00F0A6800023FB758B4BDB6903F080
:102F70008053002B0DD1884BDB69874A43F0805387
:102F8000D361854BDB6903F08053BB60BB680123D1
:102F9000FB75824B1B6803F48073002B18D17F4BA9
:102FA0001B687E4A43F480731360FFF779F8386139
:102FB00008E0FFF775F802463B69D31A642B01D984
:102FC000032303E1754B1B6803F48073002BF0D0DF
:102FD0007B68DB68012B06D16F4B1B6A6E4A43F09E
:102FE000010313622DE07B68DB68002B0CD16A4B78
:102FF0001B6A694A23F001031362674B1B6A664A26
:1030000023F0040313621CE07B68DB68052B0CD102
:10301000614B1B6A604A43F0040313625E4B1B6AF8
:103020005D4A43F0010313620BE05B4B1B6A5A4A93
:1030300023F001031362584B1B6A574A23F0040321
:1030400013627B68DB68002B15D0FFF729F8386125
:103050000AE0FFF725F802463B69D31A41F28832AD
:10306000934201D90323B1E04B4B1B6A03F00203E7
:10307000002BEED014E0FFF713F838610AE0FFF7F9
:103080000FF802463B69D31A41F28832934201D9C4
:1030900003239BE0404B1B6A03F00203002BEED19D
:1030A000FB7D012B05D13C4BDB693B4A23F0805370
:1030B000D3617B68DB69002B00F08780364B5B684F
:1030C00003F00C03082B61D07B68DB69022B46D12F
:1030D000334B00221A60FEF7E3FF386108E0FEF789
:1030E000DFFF02463B69D31A022B01D903236DE0AF
:1030F000294B1B6803F00073002BF0D17B681B6A1F
:10310000B3F5803F08D1244B5B6823F400327B6821
:103110009B68214913434B601F4B5B6823F4741277
:103120007B68196A7B685B6A0B431B4913434B60DE
:103130001B4B01221A60FEF7B3FF386108E0FEF76F
:10314000AFFF02463B69D31A022B01D903233DE0AE
:10315000114B1B6803F00073002BF0D035E0104BCF
:1031600000221A60FEF79CFF386108E0FEF798FF26
:1031700002463B69D31A022B01D9032326E0064BF2
:103180001B6803F00073002BF0D11EE07B68DB6945
:10319000012B07D1012319E000100240007000400C
:1031A000600042420B4B5B68FB60FB6803F48032BB
:1031B0007B681B6A9A4206D1FB6803F470127B6835
:1031C0005B6A9A4201D0012300E0002318461837B9
:1031D000BD4680BD0010024080B584B000AF78606D
:1031E00039607B68002B01D10123D0E06A4B1B685A
:1031F00003F007033A689A4210D9674B1B6823F023
:10320000070265493B6813430B60634B1B6803F07F
:1032100007033A689A4201D00123B8E07B681B6833
:1032200003F00203002B20D07B681B6803F004032B
:10323000002B05D0594B5B68584A43F4E063536058
:103240007B681B6803F00803002B05D0534B5B68B9
:10325000524A43F460535360504B5B6823F0F002D2
:103260007B689B684D4913434B607B681B6803F088
:103270000103002B40D07B685B68012B07D1474BD3
:103280001B6803F40033002B15D101237FE07B681A
:103290005B68022B07D1414B1B6803F00073002BC6
:1032A00009D1012373E03D4B1B6803F00203002B9F
:1032B00001D101236BE0394B5B6823F003027B688B
:1032C0005B68364913434B60FEF7EAFEF8600AE09C
:1032D000FEF7E6FE0246FB68D31A41F288329342BB
:1032E00001D9032353E02D4B5B6803F00C027B688C
:1032F0005B689B009A42EBD1274B1B6803F00703E6
:103300003A689A4210D2244B1B6823F007022249E4
:103310003B6813430B60204B1B6803F007033A68BC
:103320009A4201D0012332E07B681B6803F004035A
:10333000002B08D0194B5B6823F4E0627B68DB68E4
:10334000164913434B607B681B6803F00803002B8E
:1033500009D0124B5B6823F460527B681B69DB0069
:103360000E4913434B6000F021F802460B4B5B689B
:103370001B0903F00F030A49CB5C22FA03F3094A45
:103380001360094B1B681846FEF77AFB00231846AA
:103390001037BD4680BD00BF002002400010024033
:1033A000BC7E00080C0000201000002080B487B014
:1033B00000AF0023FB600023BB6000237B61002380
:1033C0007B6000233B611E4B5B68FB60FB6803F086
:1033D0000C03042B02D0082B03D027E0194B3B61D0
:1033E00027E0FB689B0C03F00F03174AD35C7B605C
:1033F000FB6803F48033002B10D0114B5B685B0C2F
:1034000003F00103114AD35CBB607B680D4A03FBE8
:1034100002F2BB68B2FBF3F37B6104E07B680C4A09
:1034200002FB03F37B617B693B6102E0054B3B617F
:1034300000BF3B6918461C37BD4680BC704700BFC3
:103440000010024000127A00D47E0008E47E0008DA
:1034500000093D0080B400AF024B1B681846BD4612
:1034600080BC70470C00002080B500AFFFF7F2FF72
:103470000246054B5B681B0A03F007030349CB5C5C
:1034800022FA03F3184680BD00100240CC7E0008EB
:1034900080B500AFFFF7DEFF0246054B5B68DB0A35
:1034A00003F007030349CB5C22FA03F3184680BDFF
:1034B00000100240CC7E000880B483B000AF78607A
:1034C00039607B680F221A60114B5B6803F00302BE
:1034D0007B685A600E4B5B6803F0F0027B689A6071
:1034E0000B4B5B6803F4E0627B68DA60084B5B6857
:1034F000DB0803F4E0627B681A61064B1B6803F08B
:1035000007023B681A6000BF0C37BD4680BC70479D
:10351000001002400020024080B485B000AF786007
:103520000A4B1B680A4AA2FB03235B0A7A6802FB68
:1035300003F3FB6000BFFB685A1EFA60002BF9D151
:1035400000BF00BF1437BD4680BC70470C00002090
:10355000D34D621080B582B000AF78607B68002BDD
:1035600001D1012341E07B6893F83D30DBB2002BB1
:1035700006D17B68002283F83C207868FEF71CFCAB
:103580007B68022283F83D207B681A687B680433DD
:103590001946104600F0BEFA7B68012283F84620E7
:1035A0007B68012283F83E207B68012283F83F205C
:1035B0007B68012283F840207B68012283F8412048
:1035C0007B68012283F842207B68012283F8432034
:1035D0007B68012283F844207B68012283F8452020
:1035E0007B68012283F83D20002318460837BD463A
:1035F00080BD000080B485B000AF78607B6893F830
:103600003D30DBB2012B01D0012332E07B68022286
:1036100083F83D207B681B68184A93420ED07B6874
:103620001B68B3F1804F09D07B681B68144A934232
:1036300004D07B681B68134A934211D17B681B68D6
:103640009B6803F00703FB60FB68062B10D07B68C8
:103650001B681A687B681B6842F001021A6007E069
:103660007B681B681A687B681B6842F001021A605D
:10367000002318461437BD4680BC7047002C01401B
:10368000000400400008004080B485B000AF7860BE
:103690007B6893F83D30DBB2012B01D001233AE087
:1036A0007B68022283F83D207B681B68DA687B68B0
:1036B0001B6842F00102DA607B681B68184A93427B
:1036C0000ED07B681B68B3F1804F09D07B681B6804
:1036D000144A934204D07B681B68134A934211D169
:1036E0007B681B689B6803F00703FB60FB68062B85
:1036F00010D07B681B681A687B681B6842F0010267
:103700001A6007E07B681B681A687B681B6842F0D8
:1037100001021A60002318461437BD4680BC70476A
:10372000002C0140000400400008004080B582B039
:1037300000AF78607B681B681B6903F00203022BF3
:1037400022D17B681B68DB6803F00203022B1BD1CC
:103750007B681B686FF002021A617B6801221A778E
:103760007B681B689B6903F00303002B03D0786818
:1037700000F0B4F905E0786800F0A7F9786800F087
:10378000B6F97B6800221A777B681B681B6903F017
:103790000403042B22D17B681B68DB6803F004035D
:1037A000042B1BD17B681B686FF004021A617B68D5
:1037B00002221A777B681B689B6903F44073002B15
:1037C00003D0786800F08AF905E0786800F07DF9A8
:1037D000786800F08CF97B6800221A777B681B6898
:1037E0001B6903F00803082B22D17B681B68DB6888
:1037F00003F00803082B1BD17B681B686FF00802DD
:103800001A617B6804221A777B681B68DB6903F006
:103810000303002B03D0786800F060F905E07868B6
:1038200000F053F9786800F062F97B6800221A779B
:103830007B681B681B6903F01003102B22D17B6887
:103840001B68DB6803F01003102B1BD17B681B681F
:103850006FF010021A617B6808221A777B681B6878
:10386000DB6903F44073002B03D0786800F036F96D
:1038700005E0786800F029F9786800F038F97B688D
:1038800000221A777B681B681B6903F00103012B78
:103890000ED17B681B68DB6803F00103012B07D1A5
:1038A0007B681B686FF001021A617868FDF718FEEB
:1038B0007B681B681B6903F08003802B0ED17B683B
:1038C0001B68DB6803F08003802B07D17B681B68D3
:1038D0006FF080021A61786800F07BFA7B681B68E1
:1038E0001B6903F04003402B0ED17B681B68DB682B
:1038F00003F04003402B07D17B681B686FF0400248
:103900001A61786800F0FCF87B681B681B6903F09B
:103910002003202B0ED17B681B68DB6803F020039B
:10392000202B07D17B681B686FF020021A61786832
:1039300000F046FA00BF0837BD4680BD80B584B0B0
:1039400000AF786039600023FB737B6893F83C30EC
:10395000012B01D10223B4E07B68012283F83C20D3
:103960007B68022283F83D207B681B689B68BB60F4
:10397000BB6823F07703BB60BB6823F47F43BB6065
:103980007B681B68BA689A603B681B68B3F5005F88
:103990003ED0B3F5005F00F28780B3F5805F00F0A2
:1039A0008680B3F5805F7FD8702B1AD0702B7BD8C0
:1039B000602B50D0602B77D8502B3CD0502B73D835
:1039C000402B58D0402B6FD8302B64D0302B6BD885
:1039D000202B60D0202B67D8002B5CD0102B5AD026
:1039E00062E07B6818683B6899683B685A683B6886
:1039F000DB6800F068F97B681B689B68BB60BB688C
:103A000043F07703BB607B681B68BA689A604FE03D
:103A10007B6818683B6899683B685A683B68DB6854
:103A200000F051F97B681B689A687B681B6842F458
:103A300080429A603CE07B6818683B6859683B6844
:103A4000DB681A4600F0C8F87B681B6850211846EE
:103A500000F01FF92CE07B6818683B6859683B68E8
:103A6000DB681A4600F0E6F87B681B6860211846A0
:103A700000F00FF91CE07B6818683B6859683B68E8
:103A8000DB681A4600F0A8F87B681B6840211846DE
:103A900000F0FFF80CE07B681A683B681B68194669
:103AA000104600F0F6F803E00123FB7300E000BFCE
:103AB0007B68012283F83D207B68002283F83C204C
:103AC000FB7B18461037BD4680BD80B483B000AF85
:103AD000786000BF0C37BD4680BC704780B483B0AF
:103AE00000AF786000BF0C37BD4680BC704780B423
:103AF00083B000AF786000BF0C37BD4680BC704714
:103B000080B483B000AF786000BF0C37BD4680BC86
:103B10007047000080B485B000AF786039607B6882
:103B20001B68FB607B68294A93420BD07B68B3F12A
:103B3000804F07D07B68264A934203D07B68254A92
:103B4000934208D1FB6823F07003FB603B685B681D
:103B5000FA681343FB607B681C4A93420BD07B6876
:103B6000B3F1804F07D07B68194A934203D07B683A
:103B7000184A934208D1FB6823F44073FB603B680A
:103B8000DB68FA681343FB60FB6823F080023B6844
:103B90005B691343FB607B68FA681A603B689A684C
:103BA0007B68DA623B681A687B689A627B68074ABE
:103BB000934203D13B681A697B681A637B680122D0
:103BC0005A6100BF1437BD4680BC7047002C0140CD
:103BD000000400400008004080B487B000AFF860E7
:103BE000B9607A60FB681B6A7B61FB681B6A23F023
:103BF0000102FB681A62FB689B693B613B6923F029
:103C0000F0033B617B681B013A6913433B617B69AD
:103C100023F00A037B617A69BB6813437B61FB680D
:103C20003A699A61FB687A691A6200BF1C37BD461F
:103C300080BC704780B487B000AFF860B9607A602C
:103C4000FB681B6A7B61FB681B6A23F01002FB6840
:103C50001A62FB689B693B613B6923F470433B61DB
:103C60007B681B033A6913433B617B6923F0A00324
:103C70007B61BB681B017A6913437B61FB683A690E
:103C80009A61FB687A691A6200BF1C37BD4680BC26
:103C9000704780B485B000AF786039607B689B68FE
:103CA000FB60FB6823F07003FB603A68FB6813431A
:103CB00043F00703FB607B68FA689A6000BF143723
:103CC000BD4680BC704780B487B000AFF860B96073
:103CD0007A603B60FB689B687B617B6923F47F4370
:103CE0007B613B681A027B681A43BB6813437A699D
:103CF00013437B61FB687A699A6000BF1C37BD463D
:103D000080BC704780B485B000AF786039607B6854
:103D100093F83C30012B01D1022346E07B6801225D
:103D200083F83C207B68022283F83D207B681B6877
:103D30005B68FB607B681B689B68BB60FB6823F06B
:103D40007003FB603B681B68FA681343FB607B6889
:103D50001B68FA685A607B681B68164A93420ED04B
:103D60007B681B68B3F1804F09D07B681B68124ADF
:103D7000934204D07B681B68104A93420CD1BB6805
:103D800023F08003BB603B685B68BA681343BB6089
:103D90007B681B68BA689A607B68012283F83D20C3
:103DA0007B68002283F83C20002318461437BD4668
:103DB00080BC7047002C0140000400400008004017
:103DC00080B483B000AF786000BF0C37BD4680BCC4
:103DD000704780B483B000AF786000BF0C37BD4639
:103DE00080BC704780B582B000AF78607B68002BE4
:103DF00001D1012342E07B6893F84130DBB2002B14
:103E000006D17B68002283F840207868FEF74EF8E0
:103E10007B68242283F841207B681B68DA687B6812
:103E20001B6822F40052DA60786800F0CDFD7B68F0
:103E30001B681A697B681B6822F490421A617B68D0
:103E40001B685A697B681B6822F02A025A617B68EA
:103E50001B68DA687B681B6842F40052DA607B6892
:103E600000225A647B68202283F841207B6820224C
:103E700083F842207B6800225A63002318460837E3
:103E8000BD4680BD80B58AB002AFF860B9603B60C6
:103E90001346FB8000237B61FB6893F84130DBB263
:103EA000202B6DD1BB68002B02D0FB88002B01D1E9
:103EB000012366E0FB6800225A64FB68212283F834
:103EC0004120FEF7EDF87861FB68FA889A84FB6878
:103ED000FA88DA84FB689B68B3F5805F08D1FB68D9
:103EE0001B69002B04D10023FB61BB68BB6103E0AD
:103EF000BB68FB610023BB612AE03B6800937B69E0
:103F000000228021F86800F01DFB0346002B01D041
:103F1000032336E0FB69002B0BD1BB691B881A46D3
:103F2000FB681B68C2F308025A60BB690233BB61BD
:103F300007E0FB691A78FB681B685A60FB6901336C
:103F4000FB61FB68DB8C9BB2013B9AB2FB68DA84B5
:103F5000FB68DB8C9BB2002BCFD13B6800937B6965
:103F600000224021F86800F0EDFA0346002B01D052
:103F7000032306E0FB68202283F84120002300E0B1
:103F8000022318462037BD4680BD80B584B000AFFF
:103F9000F860B9601346FB80FB6893F84230DBB2EF
:103FA000202B12D1BB68002B02D0FB88002B01D143
:103FB00001230BE0FB6800221A63FB881A46B968EC
:103FC000F86800F02DFB034600E002231846103786
:103FD000BD4680BD80B5BAB000AF78607B681B6815
:103FE0001B68C7F8E4307B681B68DB68C7F8E03003
:103FF0007B681B685B69C7F8DC300023C7F8D830E2
:104000000023C7F8D430D7F8E43003F00F03C7F823
:10401000D830D7F8D830002B0FD1D7F8E43003F0E0
:104020002003002B09D0D7F8E03003F02003002B49
:1040300003D0786800F00AFC5BE2D7F8D830002B98
:1040400000F0DE80D7F8DC3003F00103002B06D14E
:10405000D7F8E03003F49073002B00F0D180D7F84C
:10406000E43003F00103002B0BD0D7F8E03003F469
:104070008073002B05D07B685B6C43F001027B688A
:104080005A64D7F8E43003F00403002B0BD0D7F8C0
:10409000DC3003F00103002B05D07B685B6C43F040
:1040A00002027B685A64D7F8E43003F00203002B65
:1040B0000BD0D7F8DC3003F00103002B05D07B6870
:1040C0005B6C43F004027B685A64D7F8E43003F079
:1040D0000803002B11D0D7F8E03003F02003002BA9
:1040E00005D1D7F8DC3003F00103002B05D07B6845
:1040F0005B6C43F008027B685A647B685B6C002B46
:1041000000F0F281D7F8E43003F02003002B08D050
:10411000D7F8E03003F02003002B02D0786800F0DD
:1041200095FB7B681B685B6903F04003002B14BFA1
:1041300001230023DBB2C7F8D4307B685B6C03F04B
:104140000803002B03D1D7F8D430002B4FD0786868
:1041500000F09FFA7B681B685B6903F04003002B4B
:1041600041D07B681B681433C7F89C30D7F89C306B
:1041700053E8003FC7F89830D7F8983023F0400351
:10418000C7F8D0307B681B681433D7F8D020C7F845
:10419000A820C7F8A430D7F8A410D7F8A82041E881
:1041A0000023C7F8A030D7F8A030002BD9D17B6806
:1041B000DB6B002B13D07B68DB6B7E4A5A637B681A
:1041C000DB6B1846FEF710F90346002B16D07B6810
:1041D000DB6B5B6B7A68D26B104698470EE07868B1
:1041E00000F09CF90AE0786800F098F906E0786839
:1041F00000F094F97B6800225A6475E100BF73E116
:104200007B681B6B012B40F04F81D7F8E43003F043
:104210001003002B00F04881D7F8E03003F01003C2
:10422000002B00F041810023BB607B681B681B688A
:10423000BB607B681B685B68BB60BB687B681B6896
:104240005B6903F04003002B00F0B6807B68DB6BFA
:104250001B685B68A7F8BE30B7F8BE30002B00F0D3
:1042600045817B689B8DB7F8BE209A4280F03E81E5
:104270007B68B7F8BE20DA857B68DB6B9B69202BF7
:1042800000F088807B681B680C33C7F88830D7F84B
:10429000883053E8003FC7F88430D7F8843023F4DF
:1042A0008073C7F8B8307B681B680C33D7F8B82028
:1042B000C7F89420C7F89030D7F89010D7F894201A
:1042C00041E80023C7F88C30D7F88C30002BD9D1C7
:1042D0007B681B6814337B677B6F53E8003F3B6749
:1042E0003B6F23F00103C7F8B4307B681B681433BD
:1042F000D7F8B420C7F88020FB67F96FD7F8802083
:1043000041E80023BB67BB6F002BE1D17B681B68D2
:1043100014333B663B6E53E8003FFB65FB6D23F0B7
:104320004003C7F8B0307B681B681433D7F8B0205F
:10433000FA66BB66B96EFA6E41E800237B667B6E57
:10434000002BE3D17B68202283F842207B68002287
:104350001A637B681B680C33FB64FB6C53E8003FFB
:10436000BB64BB6C23F01003C7F8AC307B681B68E0
:104370000C33D7F8AC20BA657B65796DBA6D41E82E
:1043800000233B653B6D002BE3D17B68DB6B18465C
:10439000FDF7EEFF7B6802225A637B689A8D7B688B
:1043A000DB8D9BB2D31A9BB21946786800F0BFF838
:1043B0009CE000BF574700087B689A8D7B68DB8DC7
:1043C0009BB2D31AA7F8CE307B68DB8D9BB2002B53
:1043D00000F08E80B7F8CE30002B00F089807B682B
:1043E0001B680C33BB63BB6B53E8003F7B637B6B89
:1043F00023F49073C7F8C8307B681B680C33D7F878
:10440000C8207A643B64396C7A6C41E80023FB6312
:10441000FB6B002BE3D17B681B6814337B627B6AE8
:1044200053E8003F3B623B6A23F00103C7F8C43006
:104430007B681B681433D7F8C4203A63FB62F96ABF
:104440003A6B41E80023BB62BB6A002BE3D17B6877
:10445000202283F842207B6800221A637B681B6855
:104460000C333B613B6953E8003FFB60FB6823F082
:104470001003C7F8C0307B681B680C33D7F8C02026
:10448000FA61BB61B969FA6941E800237B617B6924
:10449000002BE3D17B6802225A63B7F8CE3019466D
:1044A000786800F044F823E0D7F8E43003F08003A4
:1044B000002B09D0D7F8E03003F08003002B03D0A5
:1044C000786800F05CF914E0D7F8E43003F04003BA
:1044D000002B0ED0D7F8E03003F04003002B08D0BB
:1044E000786800F09BF904E000BF02E000BF00E044
:1044F00000BFE837BD4680BD80B483B000AF7860B0
:1045000000BF0C37BD4680BC704780B483B000AF9D
:10451000786000BF0C37BD4680BC704780B483B064
:1045200000AF786000BF0C37BD4680BC704780B4D8
:1045300083B000AF78600B467B8000BF0C37BD4670
:1045400080BC704780B590B000AFF860B9603B6048
:104550001346FB7150E0BB6CB3F1FF3F4CD0BB6C1A
:10456000002B07D0FDF79CFD02463B68D31ABA6CBE
:104570009A4241D2FB681B680C33BB62BB6A53E8AA
:10458000003F7B627B6A23F4D073FB63FB681B688C
:104590000C33FA6B7A633B63396B7A6B41E8002327
:1045A000FB62FB6A002BE5D1FB681B6814337B615F
:1045B0007B6953E8003F3B613B6923F00103BB6328
:1045C000FB681B681433BA6B3A62FB61F9693A6A9B
:1045D00041E80023BB61BB69002BE5D1FB682022C9
:1045E00083F84120FB68202283F84220FB680022E8
:1045F00083F8402003230FE0FB681B681A68BB6840
:104600001340BA689A420CBF01230023DBB21A465A
:10461000FB799A429FD0002318464037BD4680BDA3
:1046200080B485B000AFF860B9601346FB80FB68CA
:10463000BA689A62FB68FA889A85FB68FA88DA8514
:10464000FB6800225A64FB68222283F84220FB6840
:104650001B69002B07D0FB681B68DA68FB681B68C6
:1046600042F48072DA60FB681B685A69FB681B6859
:1046700042F001025A61FB681B68DA68FB681B683C
:1046800042F02002DA60002318461437BD4680BC91
:10469000704780B495B000AF78607B681B680C33BE
:1046A0007B637B6B53E8003F3B633B6B23F490736E
:1046B000FB647B681B680C33FA6C3A64FB63F96B30
:1046C0003A6C41E80023BB63BB6B002BE5D17B68F0
:1046D0001B6814333B623B6A53E8003FFB61FB6994
:1046E00023F00103BB647B681B681433BA6CFA6265
:1046F000BB62B96AFA6A41E800237B627B6A002BDD
:10470000E5D17B681B6B012B19D17B681B680C33CF
:10471000FB60FB6853E8003FBB60BB6823F01003FD
:104720007B647B681B680C337A6CBA617B61796946
:10473000BA6941E800233B613B69002BE5D17B6806
:10474000202283F842207B6800221A6300BF54377E
:10475000BD4680BC704780B584B000AF78607B6890
:104760005B6AFB60FB680022DA85FB680022DA8462
:10477000F868FFF7D3FE00BF1037BD4680BD80B498
:1047800085B000AF78607B6893F84130DBB2212BB5
:104790003ED17B689B68B3F5805F14D17B681B6951
:1047A000002B10D17B681B6AFB60FB681B881A46D4
:1047B0007B681B68C2F308025A607B681B6A9A1CFC
:1047C0007B681A6208E07B681B6A591C7A68116270
:1047D0001A787B681B685A607B68DB8C9BB2013B54
:1047E0009BB27A681946D184002B0FD17B681B6875
:1047F000DA687B681B6822F08002DA607B681B68DD
:10480000DA687B681B6842F04002DA60002300E04F
:10481000022318461437BD4680BC704780B582B06D
:1048200000AF78607B681B68DA687B681B6822F0E1
:104830004002DA607B68202283F841207868FFF725
:104840005BFE002318460837BD4680BD80B58CB09E
:1048500000AF78607B6893F84230DBB2222B40F0E7
:10486000AE807B689B68B3F5805F17D17B681B695E
:10487000002B13D10023FB627B689B6ABB627B68C1
:104880001B685B689BB2C3F308039AB2BB6A1A80C9
:104890007B689B6A9A1C7B689A6226E07B689B6AAD
:1048A000FB620023BB627B689B68B3F5805F07D027
:1048B0007B689B68002B0AD17B681B69002B06D1A3
:1048C0007B681B685B68DAB2FB6A1A7008E07B6879
:1048D0001B685B68DBB203F07F03DAB2FB6A1A7015
:1048E0007B689B6A5A1C7B689A627B68DB8D9BB2F3
:1048F000013B9BB27A681946D185002B5DD17B685C
:104900001B68DA687B681B6822F02002DA607B682B
:104910001B68DA687B681B6822F48072DA607B6847
:104920001B685A697B681B6822F001025A617B6828
:10493000202283F842207B6800225A637B681B6B2D
:10494000012B35D17B6800221A637B681B680C330E
:104950007B617B6953E8003F3B613B6923F01003B7
:104960007B627B681B680C337A6A3A62FB61F96987
:104970003A6A41E80023BB61BB69002BE5D17B6843
:104980001B681B6803F01003102B0AD10023FB6087
:104990007B681B681B68FB607B681B685B68FB604F
:1049A000FB687B689B8D19467868FFF7C0FD02E0C5
:1049B0007868FFF7AAFD002302E0002300E002234D
:1049C00018463037BD4680BD80B584B000AF7860F2
:1049D0007B681B681B6923F440517B68DA687B683D
:1049E0001B680A431A617B689A687B681B691A43D3
:1049F0007B685B691343BB607B681B68DB6823F4DF
:104A0000B05323F00C037A681268B9680B43D36083
:104A10007B681B685B6923F440717B689A697B68DB
:104A20001B680A435A617B681B682C4A934203D176
:104A3000FEF72EFDF86002E0FEF716FDF860FA685A
:104A400013469B0013449A001A447B685B689B00E2
:104A5000B2FBF3F3224AA2FB03235B091901FA68B4
:104A600013469B0013449A001A447B685B689B00C2
:104A7000B2FBF3F21A4BA3FB02035B09642000FBB9
:104A800003F3D31A1B013233154AA2FB03235B093C
:104A900003F0F0031944FA6813469B0013449A008C
:104AA0001A447B685B689B00B2FBF3F20C4BA3FBE0
:104AB00002035B09642000FB03F3D31A1B013233AA
:104AC000074AA2FB03235B0903F00F027B681B6804
:104AD0000A449A6000BF1037BD4680BD00380140CF
:104AE0001F85EB5180B485B000AFEFF30583BB6049
:104AF000BB68002B0FD1EFF310837B607B68002B2A
:104B000009D1104B1B68022B09D1EFF311833B60D5
:104B10003B68002B03D06FF00503FB600CE0094BF2
:104B20001B68002B05D1074B01221A600023FB6094
:104B300002E04FF0FF33FB60FB6818461437BD46B8
:104B400080BC70470404002080B584B000AFEFF350
:104B50000583BB60BB68002B0FD1EFF310837B6034
:104B60007B68002B09D1114B1B68022B09D1EFF395
:104B700011833B603B68002B03D06FF00503FB60A3
:104B80000EE00A4B1B68012B07D1084B02221A606A
:104B900001F044FC0023FB6002E04FF0FF33FB60B8
:104BA000FB6818461037BD4680BD00BF04040020D6
:104BB00080B592B004AFF860B9607A6000237B6181
:104BC000EFF305837B627B6A002B40F09480EFF368
:104BD00010833B623B6A002B40F08D80484B1B6882
:104BE000022B06D1EFF31183FB61FB69002B40F030
:104BF0008280FB68002B7ED080233B631823FB62FE
:104C00000023FB7607F11B037B634FF0FF33BB628E
:104C10007B68002B45D07B681B68002B02D07B682B
:104C20001B687B637B689B69002B02D07B689B6958
:104C3000FB62FB6A002B08D0FB6A382B05D87B6827
:104C40005B6803F00103002B01D0002354E07B6874
:104C50005B69002B03D07B685B699B083B637B68C7
:104C60009B68002B0ED07B68DB685B2B0AD97B68C6
:104C70001B69002B06D07B685B69002B02D00123E7
:104C8000BB6210E07B689B68002B0CD17B68DB6803
:104C9000002B08D17B681B69002B04D10023BB6269
:104CA00001E00023BB62BB6A012B10D17B681B694A
:104CB0007A68926802920193FB6A0093BB683A6B30
:104CC000796BF86801F0DEF903467B6113E0BB6A9B
:104CD000002B10D13B6B9AB207F114030193FB6ACE
:104CE0000093BB68796BF86801F028FA0346012B42
:104CF00001D000237B617B6918463837BD4680BDF3
:104D00000404002080B586B000AF7860EFF305831F
:104D10003B613B69002B0FD1EFF31083FB60FB6815
:104D2000002B09D10D4B1B68022B09D1EFF3118326
:104D3000BB60BB68002B03D06FF005037B6107E00D
:104D400000237B617B68002B02D0786801F032FB86
:104D50007B6918461837BD4680BD00BF040400209B
:104D600080B485B000AFF860B9607A60FB68064A2D
:104D70001A60BB68054A1A607B6880221A6000BF0F
:104D80001437BD4680BC704708040020640400202E
:104D900080B485B000AFF860B9607A60FB68074AFC
:104DA0001A60BB68064A1A607B684FF480721A600A
:104DB00000BF1437BD4680BC704700BF64060020AA
:104DC000C006002080B58AB000AF78600023FB6188
:104DD00001F08AFB584B1B68002B01D100F010F941
:104DE000564B1A687B681340002B40F08E807B681E
:104DF000002B1DD008227B6813447B607B6803F086
:104E00000703002B14D07B6823F0070308337B6073
:104E10007B6803F00703002B0AD04FF0500383F3A5
:104E20001188BFF36F8FBFF34F8F7B6100BFFEE729
:104E30007B68002B69D0424B1B687A689A4264D821
:104E4000404B3B623F4B1B687B6204E07B6A3B62EA
:104E50007B6A1B687B627B6A5B687A689A4203D9CB
:104E60007B6A1B68002BF1D1334B1B687A6A9A422C
:104E70004BD03B6A1B6808221344FB617B6A1A68AB
:104E80003B6A1A607B6A5A687B68D21A08235B0007
:104E90009A421FD97A6A7B681344BB61BB6903F0ED
:104EA0000703002B0AD04FF0500383F31188BFF3A0
:104EB0006F8FBFF34F8F3B6100BFFEE77B6A5A687D
:104EC0007B68D21ABB695A607B6A7A685A60B86993
:104ED00000F0F8F81A4B1A687B6A5B68D31A184A14
:104EE0001360174B1A68184B1B689A4203D2144B75
:104EF0001B68154A13607B6A5A68104B1B681A437B
:104F00007B6A5A607B6A00221A6001F0FBFAFB6937
:104F100003F00703002B0AD04FF0500383F31188EE
:104F2000BFF36F8FBFF34F8FFB6000BFFEE7FB69DE
:104F300018462837BD4680BDC8160020D41600206C
:104F4000CC160020C0160020D016002080B586B0F8
:104F500000AF78607B687B617B68002B48D00823BA
:104F60005B427A6913447B617B693B613B695A68A8
:104F7000214B1B681340002B0AD14FF0500383F3E1
:104F80001188BFF36F8FBFF34F8FFB6000BFFEE749
:104F90003B691B68002B0AD04FF0500383F3118844
:104FA000BFF36F8FBFF34F8FBB6000BFFEE73B695E
:104FB0005A68114B1B681340002B19D03B691B68C2
:104FC000002B15D13B695A680B4B1B68DB431A4019
:104FD0003B695A6001F088FA3B695A68074B1B68C5
:104FE0001344064A1360386900F06CF801F08AFA3D
:104FF00000BF1837BD4680BDD4160020CC16002057
:1050000080B485B000AF4FF44063BB60274BFB60BA
:10501000FB6803F00703002B0CD0FB680733FB6031
:10502000FB6823F00703FB60BA68FB68D31A1F4ACA
:105030001344BB60FB687B601D4A7B6813601C4B9C
:1050400000225A607B68BA681344FB600822FB6840
:105050009B1AFB60FB6823F00703FB60FB68154AA3
:105060001360144B1B6800225A60124B1B6800220D
:105070001A607B683B603B68FA68D21A3B685A60EA
:105080000C4B1A683B681A603B685B680A4A1360FD
:105090003B685B68094A1360094B4FF000421A6095
:1050A00000BF1437BD4680BC704700BFC00A002057
:1050B000C0160020C8160020D0160020CC160020F4
:1050C000D416002080B485B000AF7860274BFB6019
:1050D00002E0FB681B68FB60FB681B687A689A4209
:1050E000F7D8FB68BB60FB685B68BA6813447A68F2
:1050F0009A4208D1FB685A687B685B681A44FB686F
:105100005A60FB687B607B68BB607B685B68BA68E1
:105110001A44FB681B689A4218D1FB681A68144B42
:105120001B689A420DD07B685A68FB681B685B68F5
:105130001A447B685A60FB681B681A687B681A60AF
:1051400008E00B4B1A687B681A6003E0FB681A687A
:105150007B681A60FA687B689A4202D0FB687A68BA
:105160001A6000BF1437BD4680BC7047C0160020CF
:10517000C816002080B483B000AF78607B6803F16C
:1051800008027B685A607B684FF0FF329A607B6848
:1051900003F108027B68DA607B6803F108027B6830
:1051A0001A617B6800221A6000BF0C37BD4680BCC4
:1051B000704780B483B000AF78607B6800221A61CA
:1051C00000BF0C37BD4680BC704780B485B000AFCF
:1051D000786039607B685B68FB603B68FA685A609E
:1051E000FB689A683B689A60FB689B683A685A60FB
:1051F000FB683A689A603B687A681A617B681B684A
:105200005A1C7B681A6000BF1437BD4680BC7047CB
:1052100080B485B000AF786039603B681B68BB60C4
:10522000BB68B3F1FF3F03D17B681B69FB600CE0F7
:105230007B680833FB6002E0FB685B68FB60FB682F
:105240005B681B68BA689A42F6D2FB685A683B688A
:105250005A603B685B683A689A603B68FA689A6093
:10526000FB683A685A603B687A681A617B681B6819
:105270005A1C7B681A6000BF1437BD4680BC70475B
:1052800080B485B000AF78607B681B69FB607B6889
:105290005B687A6892689A607B689B687A685268F3
:1052A0005A60FB685B687A689A4203D17B689A68A7
:1052B000FB685A607B6800221A61FB681B685A1EF3
:1052C000FB681A60FB681B6818461437BD4680BC33
:1052D0007047000080B485B000AFF860B9607A60B4
:1052E000FB68043BFB60FB684FF080721A60FB6850
:1052F000043BFB60BB6823F00102FB681A60FB689B
:10530000043BFB60084AFB681A60FB68143BFB60C7
:105310007A68FB681A60FB68203BFB60FB681846F4
:105320001437BD4680BC70472D53000880B485B04B
:1053300000AF00237B60124B1B68B3F1FF3F0AD024
:105340004FF0500383F31188BFF36F8FBFF34F8F7C
:10535000FB6000BFFEE74FF0500383F31188BFF3FB
:105360006F8FBFF34F8FBB6000BF00BF7B68002B08
:10537000FCD000BF00BF1437BD4680BC704700BFE3
:1053800018000020000000000000000000000000E5
:10539000074B19680868B0E8F00F80F30988BFF37D
:1053A0006F8F4FF0000080F311884EF00D0E7047A4
:1053B0002017002000BF00BF06480068006880F387
:1053C000088862B661B6BFF34F8FBFF36F8F00DFFF
:1053D00000BF00BF08ED00E080B584B000AF324BE5
:1053E000FB60FB681B78DBB27B60FB68FF221A70F6
:1053F000FB681B78DBB2FB70FB78DBB203F0500379
:10540000DAB22A4B1A702A4B07221A6009E0284B9D
:105410001B68013B264A1360FB78DBB25B00DBB202
:10542000FB70FB78DBB203F08003802BEFD0204BC6
:105430001B68C3F10703042B0AD04FF0500383F31A
:105440001188BFF36F8FBFF34F8FBB6000BFFEE7C4
:10545000174B1B681B02164A1360154B1B6803F49D
:10546000E063134A13607B68DAB2FB681A70114B71
:105470001B68104A43F4700313600E4B1B680D4AFF
:1054800043F07043136000F0B9F80B4B00221A6030
:10549000FFF792FF01F0A0F9FFF748FF002318463D
:1054A0001037BD4680BD00BF00E400E0D8160020E4
:1054B000DC16002020ED00E01800002080B483B04E
:1054C00000AF4FF0500383F31188BFF36F8FBFF32A
:1054D0004F8F7B6000BF0F4B1B6801330D4A136079
:1054E0000C4B1B68012B0FD10B4B1B68DBB2002B45
:1054F0000AD04FF0500383F31188BFF36F8FBFF3CF
:105500004F8F3B6000BFFEE700BF0C37BD4680BC3D
:10551000704700BF1800002004ED00E080B483B0A5
:1055200000AF114B1B68002B0AD14FF0500383F3DF
:105530001188BFF36F8FBFF34F8F7B6000BFFEE713
:10554000094B1B68013B084A1360074B1B68002B83
:1055500005D100233B603B6883F3118800BF00BF87
:105560000C37BD4680BC70471800002000000000CA
:10557000EFF30980BFF36F8F0D4B1A6820E9F00F2E
:1055800010602DE908404FF0500080F3118801F0C1
:1055900023F94FF0000080F31188BDE80840196836
:1055A0000868B0E8F00F80F30988BFF36F8F704789
:1055B0002017002000BF00BF80B582B000AF4FF0C1
:1055C000500383F31188BFF36F8FBFF34F8F7B605E
:1055D00000BF01F043F80346002B03D0064B4FF009
:1055E00080521A6000233B603B6883F3118800BF40
:1055F00000BF0837BD4680BD04ED00E080B400AFB9
:105600000A4B00221A600A4B00221A60094B1B68E1
:10561000094AA2FB03239B09084A013B1360034B81
:1056200007221A6000BFBD4680BC704710E000E052
:1056300018E000E00C000020D34D621014E000E000
:1056400080B485B000AFEFF30583FB60FB680F2BE0
:1056500014D9164AFB6813441B78FB72144B1B7851
:10566000FA7A9A420AD24FF0500383F31188BFF3BB
:105670006F8FBFF34F8F7B6000BFFEE70D4B1B6842
:1056800003F4E0620C4B1B689A420AD94FF05003B6
:1056900083F31188BFF36F8FBFF34F8F3B6000BF61
:1056A000FEE700BF1437BD4680BC7047F0E300E062
:1056B000D81600200CED00E0DC16002080B584B088
:1056C00000AF786039607B68FB60FB68002B0AD113
:1056D0004FF0500383F31188BFF36F8FBFF34F8FE9
:1056E000BB6000BFFEE7FFF7E9FEFB681A68FB68D6
:1056F000DB6BF968096C01FB03F31A44FB685A6021
:10570000FB6800229A63FB681A68FB689A60FB6872
:105710001A68FB68DB6B013BF968096C01FB03F35A
:105720001A44FB68DA60FB68FF2283F84420FB68B8
:10573000FF2283F845203B68002B14D1FB681B69CE
:10574000002B1AD0FB681033184601F0F1F803461D
:10575000002B12D00C4B4FF080521A60BFF34F8FCA
:10576000BFF36F8F09E0FB6810331846FFF702FDA7
:10577000FB6824331846FFF7FDFCFFF7CFFE01233B
:1057800018461037BD4680BD04ED00E080B58EB0F0
:1057900002AFF860B9607A603B60FB68002B0AD109
:1057A0004FF0500383F31188BFF36F8FBFF34F8F18
:1057B000BB6200BFFEE73B68002B0AD14FF05003ED
:1057C00083F31188BFF36F8FBFF34F8F7B6200BFEE
:1057D000FEE77B68002B02D0BB68002B01D00123C1
:1057E00000E00023002B0AD14FF0500383F311880F
:1057F000BFF36F8FBFF34F8F3B6200BFFEE77B6845
:10580000002B02D1BB68002B01D1012300E0002353
:10581000002B0AD14FF0500383F31188BFF36F8F31
:10582000BFF34F8FFB6100BFFEE750237B617B69B5
:10583000502B0AD04FF0500383F31188BFF36F8FC2
:10584000BFF34F8FBB6100BFFEE73B68FB62FB6AA3
:10585000002B0DD0FB6A012283F8462097F83820F0
:10586000FB6A009313467A68B968F86800F005F897
:10587000FB6A18463037BD4680BD80B584B000AFA6
:10588000F860B9607A60FB70BB68002B03D1BB691C
:10589000BA691A6002E0BB697A681A60BB69FA6883
:1058A000DA63BB69BA681A640121B869FFF706FFB9
:1058B000BB69FA7883F84C2000BF1037BD4680BD25
:1058C00080B58EB000AFF860B9607A603B600023AD
:1058D0007B63FB683B633B6B002B0AD14FF05003AB
:1058E00083F31188BFF36F8FBFF34F8FBB6200BF8D
:1058F000FEE7BB68002B03D13B6B1B6C002B01D177
:10590000012300E00023002B0AD14FF0500383F362
:105910001188BFF36F8FBFF34F8F7B6200BFFEE72D
:105920003B68022B03D13B6BDB6B012B01D10123C5
:1059300000E00023002B0AD14FF0500383F31188BD
:10594000BFF36F8FBFF34F8F3B6200BFFEE701F0E5
:10595000B1F90346002B02D17B68002B01D1012352
:1059600000E00023002B0AD14FF0500383F311888D
:10597000BFF36F8FBFF34F8FFB6100BFFEE7FFF7F1
:105980009DFD3B6B9A6B3B6BDB6B9A4202D33B6892
:10599000022B29D13A68B968386B00F007FAF8622F
:1059A0003B6B5B6A002B10D03B6B2433184600F036
:1059B000BFFF0346002B13D03F4B4FF080521A60BD
:1059C000BFF34F8FBFF36F8F0AE0FB6A002B07D046
:1059D000394B4FF080521A60BFF34F8FBFF36F8F78
:1059E000FFF79CFD012363E07B68002B03D1FFF7E9
:1059F00095FD00235CE07B6B002B06D107F11403BF
:105A0000184600F0F9FF01237B63FFF787FD00F0E4
:105A10006BFDFFF753FD3B6B93F844305BB2B3F182
:105A2000FF3F03D13B6B002283F844203B6B93F88C
:105A300045305BB2B3F1FF3F03D13B6B002283F8EB
:105A40004520FFF76BFD3A1D07F114031146184678
:105A500000F0E8FF0346002B24D1386B00F09EFADB
:105A60000346002B18D03B6B10337A68114618465A
:105A700000F00EFF386B00F029FA00F043FD0346FA
:105A8000002B7FF47CAF0C4B4FF080521A60BFF3B9
:105A90004F8FBFF36F8F72E7386B00F017FA00F08B
:105AA00031FD6CE7386B00F011FA00F02BFD00239C
:105AB00018463837BD4680BD04ED00E080B58EB095
:105AC00000AFF860B9607A603B60FB683B633B6B9A
:105AD000002B0AD14FF0500383F31188BFF36F8F6F
